{
  "contractName": "Imobiliaria",
  "abi": [
    {
      "anonymous": false,
      "inputs": [
        {
          "indexed": false,
          "internalType": "address",
          "name": "pagador",
          "type": "address"
        },
        {
          "indexed": false,
          "internalType": "uint256",
          "name": "pgto",
          "type": "uint256"
        }
      ],
      "name": "SaldoDevolvido",
      "type": "event"
    },
    {
      "anonymous": false,
      "inputs": [
        {
          "indexed": false,
          "internalType": "address",
          "name": "from",
          "type": "address"
        },
        {
          "indexed": false,
          "internalType": "address",
          "name": "to",
          "type": "address"
        },
        {
          "indexed": false,
          "internalType": "uint256",
          "name": "amount",
          "type": "uint256"
        }
      ],
      "name": "Transfer",
      "type": "event"
    },
    {
      "constant": true,
      "inputs": [
        {
          "internalType": "address",
          "name": "",
          "type": "address"
        }
      ],
      "name": "balances",
      "outputs": [
        {
          "internalType": "uint256",
          "name": "",
          "type": "uint256"
        }
      ],
      "payable": false,
      "stateMutability": "view",
      "type": "function"
    },
    {
      "constant": true,
      "inputs": [],
      "name": "cliente",
      "outputs": [
        {
          "internalType": "address",
          "name": "",
          "type": "address"
        }
      ],
      "payable": false,
      "stateMutability": "view",
      "type": "function"
    },
    {
      "constant": true,
      "inputs": [],
      "name": "vendedor",
      "outputs": [
        {
          "internalType": "address",
          "name": "vendedorAccount",
          "type": "address"
        },
        {
          "internalType": "uint256",
          "name": "amount",
          "type": "uint256"
        }
      ],
      "payable": false,
      "stateMutability": "view",
      "type": "function"
    },
    {
      "constant": false,
      "inputs": [
        {
          "internalType": "address",
          "name": "_recebendo",
          "type": "address"
        },
        {
          "internalType": "uint256",
          "name": "_valor",
          "type": "uint256"
        }
      ],
      "name": "pagamentoImovel",
      "outputs": [],
      "payable": true,
      "stateMutability": "payable",
      "type": "function"
    },
    {
      "constant": true,
      "inputs": [],
      "name": "getAddressVendedor",
      "outputs": [
        {
          "internalType": "address",
          "name": "",
          "type": "address"
        }
      ],
      "payable": false,
      "stateMutability": "view",
      "type": "function"
    },
    {
      "constant": true,
      "inputs": [],
      "name": "getAmountVendedor",
      "outputs": [
        {
          "internalType": "uint256",
          "name": "",
          "type": "uint256"
        }
      ],
      "payable": false,
      "stateMutability": "view",
      "type": "function"
    }
  ],
  "bytecode": "0x608060405234801561001057600080fd5b50610440806100206000396000f3fe6080604052600436106100555760003560e01c806327e235e31461005a5780633182237f146100bf578063332599411461011d578063af440e9814610174578063c9122696146101c2578063e51f2f0d14610219575b600080fd5b34801561006657600080fd5b506100a96004803603602081101561007d57600080fd5b81019080803573ffffffffffffffffffffffffffffffffffffffff169060200190929190505050610244565b6040518082815260200191505060405180910390f35b3480156100cb57600080fd5b506100d461025c565b604051808373ffffffffffffffffffffffffffffffffffffffff1673ffffffffffffffffffffffffffffffffffffffff1681526020018281526020019250505060405180910390f35b34801561012957600080fd5b5061013261028e565b604051808273ffffffffffffffffffffffffffffffffffffffff1673ffffffffffffffffffffffffffffffffffffffff16815260200191505060405180910390f35b6101c06004803603604081101561018a57600080fd5b81019080803573ffffffffffffffffffffffffffffffffffffffff169060200190929190803590602001909291905050506102b3565b005b3480156101ce57600080fd5b506101d76103d2565b604051808273ffffffffffffffffffffffffffffffffffffffff1673ffffffffffffffffffffffffffffffffffffffff16815260200191505060405180910390f35b34801561022557600080fd5b5061022e6103ff565b6040518082815260200191505060405180910390f35b60036020528060005260406000206000915090505481565b60018060000160009054906101000a900473ffffffffffffffffffffffffffffffffffffffff16908060010154905082565b6000809054906101000a900473ffffffffffffffffffffffffffffffffffffffff1681565b81600160000160006101000a81548173ffffffffffffffffffffffffffffffffffffffff021916908373ffffffffffffffffffffffffffffffffffffffff1602179055508060018001540160018001819055507fddf252ad1be2c89b69c2b068fc378daa952ba7f163c4a11628f55a4df523b3ef33600160000160009054906101000a900473ffffffffffffffffffffffffffffffffffffffff166001800154604051808473ffffffffffffffffffffffffffffffffffffffff1673ffffffffffffffffffffffffffffffffffffffff1681526020018373ffffffffffffffffffffffffffffffffffffffff1673ffffffffffffffffffffffffffffffffffffffff168152602001828152602001935050505060405180910390a15050565b6000600160000160009054906101000a900473ffffffffffffffffffffffffffffffffffffffff16905090565b6000600180015490509056fea265627a7a723158201e637ab81d3e98d42f81b363f6b5123a8885ea72b04dc3e24ed81447a35399e764736f6c63430005100032",
  "source": "pragma solidity >=0.4.25 <0.7.0;\n\ncontract Imobiliaria {\n\n    address public cliente;\n    \n    struct Vendedor  {\n        address vendedorAccount;\n        uint256 amount;\n    }\n    \n    Vendedor public vendedor;\n\n    mapping (address => uint) public balances;\n\n\n    modifier SomenteCliente() { \n\t\trequire(msg.sender == cliente);\n\t\t_; \n\t}\n\n\n    event SaldoDevolvido (address pagador, uint256 pgto);\n\n    event Transfer(address from, address to, uint amount);\n\n    function pagamentoImovel(address _recebendo, uint256 _valor) public payable {\n\n        // require(preco <= valor, \"Saldo insuficiente\");\n\n        //     if(msg.value > valor){\n        //     uint256 pgto =  msg.value - valor;\n        //     msg.sender.transfer(pgto);\n        //     emit SaldoDevolvido(msg.sender, pgto);\n        // }\n        \n        vendedor.vendedorAccount = _recebendo;\n        vendedor.amount =  vendedor.amount +  _valor;\n                \n        // balances[msg.sender] -= valor;\n        // balances[recebendo] += valor;\n\n        emit Transfer(msg.sender, vendedor.vendedorAccount, vendedor.amount);\n        \n    }\n        //     modifier ValorMinimo(){\n        // require(msg.value >= preco, \"Nao foi enviado Ether suficiente\");\n        // _; \n\n   //}\n    \n    function getAddressVendedor() view public returns (address){\n        return vendedor.vendedorAccount;\n    }\n\n      function getAmountVendedor() view public returns (uint) {\n        return vendedor.amount;\n    }\n\n}\n\n",
  "sourcePath": "/home/fabricio/Documentos/APNPs/Projeto_Integrador/ContratoImobiliaria/contracts/Imobiliaria.sol",
  "compiler": {
    "name": "solc",
    "version": "0.5.16+commit.9c3226ce.Emscripten.clang"
  },
  "schemaVersion": "3.3.2",
  "updatedAt": "2020-12-05T06:41:33.134Z",
  "devdoc": {
    "methods": {}
  },
  "userdoc": {
    "methods": {}
  }
}